:020000040800F2
:10000000680600200D02000815020008170200080B
:10001000190200081B0200081D0200080000000071
:100020000000000000000000000000001F020008A7
:100030002102000800000000230200082502000839
:1000400027020008270200082702000827020008EC
:1000500027020008270200082702000827020008DC
:1000600027020008270200082702000827020008CC
:1000700027020008270200082702000827020008BC
:1000800027020008270200082702000827020008AC
:10009000270200082702000827020008270200089C
:1000A000270200082702000827020008270200088C
:1000B000270200082702000827020008270200087C
:1000C000270200082702000827020008270200086C
:1000D000270200082702000827020008270200085C
:1000E000270200082702000827020008270200084C
:1000F000270200082702000827020008270200083C
:10010000270200082702000827020008270200082B
:10011000270200082702000827020008270200081B
:10012000270200082702000827020008270200080B
:1001300027020008270200082702000827020008FB
:1001400027020008270200082702000827020008EB
:1001500027020008270200082702000827020008DB
:1001600027020008270200082702000827020008CB
:1001700027020008270200082702000800000000EC
:10018000270200082702000800F002F800F02EF80D
:100190000AA090E8000C82448344AAF10107DA45E2
:1001A00001D100F023F8AFF2090EBAE80F0013F006
:1001B000010F18BFFB1A43F001031847D8010000D4
:1001C000E80100000023002400250026103A28BF83
:1001D00078C1FBD8520728BF30C148BF0B607047B9
:1001E0001FB500F0C9F81FBD10B510BD00F031F803
:1001F0001146FFF7F5FF00F07BF800F04FF803B46D
:10020000FFF7F2FF03BC00F057F8000009488047F1
:1002100009480047FEE7FEE7FEE7FEE7FEE7FEE7E8
:10022000FEE7FEE7FEE7FEE704480549054A064B00
:1002300070470000DD020008890100086800002006
:10024000680600206802002068020020704770479E
:100250007047754600F02CF8AE46050069465346D7
:1002600020F00700854618B020B5FFF7DDFFBDE898
:1002700020404FF000064FF000074FF000084FF00D
:10028000000BAC46ACE8C009ACE8C009ACE8C0095A
:10029000ACE8C00921F007018D46704710B504464F
:1002A000AFF300802046BDE81040FFF7A8BF000074
:1002B000004870470000002001491820ABBEFEE74F
:1002C00026000200704700000020C4F2020001680E
:1002D00041F0400101608168816070474EF68850AE
:1002E000CEF20000016841F4700101607047000027
:1002F0001824C4F2020400F019F8FFF7E5FF40F2F9
:1003000060004AF22013C2F2000044F6206C4FF461
:100310000022C0F2070300BF216841F008012160FC
:10032000C0F800C022600360F6E7000043F600005A
:10033000C4F20200016C4FF4804241F0805101642C
:1003400047F20001C4F200010A60016841F4803103
:10035000016000BF01688903FCD581680122C8F2F1
:1003600040021143816000BF81684907FCD5016BE1
:1003700041F0010101637047F1EE100A4FF6FF7181
:10038000C0F2C03120EA010040F04070E1EE100AF6
:1003900070470000A4030008000000206806000069
:0403A000C40100088C
:040000050800018965
:00000001FF
