:020000040800F2
:10000000600600200D020008150200081702000813
:10001000190200081B0200081D0200080000000071
:100020000000000000000000000000001F020008A7
:100030002102000800000000230200082502000839
:1000400027020008270200082702000827020008EC
:1000500027020008270200082702000827020008DC
:1000600027020008270200082702000827020008CC
:1000700027020008270200082702000827020008BC
:1000800027020008270200082702000827020008AC
:10009000270200082702000827020008270200089C
:1000A000270200082702000827020008270200088C
:1000B000270200082702000827020008270200087C
:1000C000270200082702000827020008270200086C
:1000D000270200082702000827020008270200085C
:1000E000270200082702000827020008270200084C
:1000F000270200082702000827020008270200083C
:10010000270200082702000827020008270200082B
:10011000270200082702000827020008270200081B
:10012000270200082702000827020008270200080B
:1001300027020008270200082702000827020008FB
:1001400027020008270200082702000827020008EB
:1001500027020008270200082702000827020008DB
:1001600027020008270200082702000827020008CB
:1001700027020008270200082702000800000000EC
:10018000270200082702000800F002F800F02EF80D
:100190000AA090E8000C82448344AAF10107DA45E2
:1001A00001D100F023F8AFF2090EBAE80F0013F006
:1001B000010F18BFFB1A43F0010318475402000057
:1001C000640200000023002400250026103A28BF06
:1001D00078C1FBD8520728BF30C148BF0B607047B9
:1001E0001FB500F007F91FBD10B510BD00F031F8C4
:1001F0001146FFF7F5FF00F0ADF800F04FF803B43B
:10020000FFF7F2FF03BC00F057F8000009488047F1
:1002100009480047FEE7FEE7FEE7FEE7FEE7FEE7E8
:10022000FEE7FEE7FEE7FEE704480549054A064B00
:1002300070470000F50200088901000860000020F6
:1002400060060020600200206002002070477047B6
:100250007047754600F02CF8AE46050069465346D7
:1002600020F00700854618B020B5FFF7DDFFBDE898
:1002700020404FF000064FF000074FF000084FF00D
:10028000000BAC46ACE8C009ACE8C009ACE8C0095A
:10029000ACE8C00921F007018D46704710B504464F
:1002A000AFF300802046BDE81040FFF7A8BF000074
:1002B000004870470000002001491820ABBEFEE74F
:1002C00026000200704700000020C4F2020001680E
:1002D00041F002010160016841F00801016081689C
:1002E00041F003018160816841F00C018160882147
:1002F000016270474EF68850CEF20000016841F46A
:10030000700101607047000044F60C40C4F2000028
:10031000016841F400510160016841F00801016089
:10032000016841F00401016041F2171140F8041C1A
:10033000016841F008010160016841F004010160B9
:10034000016841F040010160016841F080010160F5
:100350007047000000F016F8FFF7B6FFFFF7D4FF74
:10036000472000F005F8482000F002F8F8E7000008
:1003700044F60041C4F200010A6812065CBFC2B232
:100380004A60704743F60000C4F20200016C4FF46B
:10039000804241F08051016447F20001C4F2000143
:1003A0000A60016841F48031016000BF016889037F
:1003B000FCD5416842F60422C2F24042114341603A
:1003C000016841F08071016001688901FCD5816894
:1003D00049F20242CCF26002114381608168090750
:1003E000FCD5016C41F400210164016B41F0010175
:1003F00001637047F1EE100A4FF6FF71C0F2C03191
:1004000020EA010040F04070E1EE100A7047000061
:10041000200400080000002060060000C40100085D
:040000050800018965
:00000001FF
