:020000040800F2
:10000000600600200D020008150200081702000813
:10001000190200081B0200081D0200080000000071
:100020000000000000000000000000001F020008A7
:100030002102000800000000230200082502000839
:1000400027020008270200082702000827020008EC
:1000500027020008270200082702000827020008DC
:1000600027020008270200082702000827020008CC
:1000700027020008270200082702000827020008BC
:1000800027020008270200082702000827020008AC
:10009000270200082702000827020008270200089C
:1000A000270200082702000827020008270200088C
:1000B000270200082702000827020008270200087C
:1000C000270200082702000827020008270200086C
:1000D000270200082702000827020008270200085C
:1000E000270200082702000827020008270200084C
:1000F000270200082702000827020008270200083C
:10010000270200082702000827020008270200082B
:10011000270200082702000827020008270200081B
:10012000270200082702000827020008270200080B
:1001300027020008270200082702000827020008FB
:1001400027020008270200082702000827020008EB
:1001500027020008270200082702000827020008DB
:1001600027020008270200082702000827020008CB
:1001700027020008270200082702000800000000EC
:10018000270200082702000800F002F800F02EF80D
:100190000AA090E8000C82448344AAF10107DA45E2
:1001A00001D100F023F8AFF2090EBAE80F0013F006
:1001B000010F18BFFB1A43F001031847500200005B
:1001C000600200000023002400250026103A28BF0A
:1001D00078C1FBD8520728BF30C148BF0B607047B9
:1001E0001FB500F005F91FBD10B510BD00F031F8C6
:1001F0001146FFF7F5FF00F0A3F800F04FF803B445
:10020000FFF7F2FF03BC00F057F8000009488047F1
:1002100009480047FEE7FEE7FEE7FEE7FEE7FEE7E8
:10022000FEE7FEE7FEE7FEE704480549054A064B00
:1002300070470000C9020008890100086000002022
:1002400060060020600200206002002070477047B6
:100250007047754600F02CF8AE46050069465346D7
:1002600020F00700854618B020B5FFF7DDFFBDE898
:1002700020404FF000064FF000074FF000084FF00D
:10028000000BAC46ACE8C009ACE8C009ACE8C0095A
:10029000ACE8C00921F007018D46704710B504464F
:1002A000AFF300802046BDE81040FFF7A8BF000074
:1002B000004870470000002001491820ABBEFEE74F
:1002C00026000200704700004EF68850CEF2000073
:1002D000016841F4700101607047000043F640027C
:1002E000C4F202021368142143F00103136044F6C0
:1002F0001F02C4F20001C0F201024A618A694FF68E
:10030000FE731A438A614FF08042136843F0010381
:100310001360136823F004031360136823F00203CF
:1003200013600A6842F001020A6000BF51F8042C11
:10033000D207FBD000220A610A698242FCD37047CF
:100340001824C4F2020400F023F843F63000C4F28B
:100350000200016841F00101016054F8180C40F0FE
:10036000400044F8180C54F8100C44F8100C00BF6E
:10037000206840F0080020604B20FFF7AFFF2068A6
:1003800040F4002020604B20FFF7A8FFF0E70000BA
:1003900043F60000C4F20200016C4FF4804241F0C9
:1003A0008051016447F20001C4F200010A60016853
:1003B00041F48031016000BF01688903FCD54168C8
:1003C00042F60422C2F2404211434160016841F00A
:1003D0008071016001688901FCD5816849F202429F
:1003E000CCF260021143816081680907FCD5704737
:1003F000F1EE100A4FF6FF71C0F2C03120EA0100A1
:1004000040F04070E1EE100A704700001C04000844
:0C0410000000002060060000C40100088D
:040000050800018965
:00000001FF
